:400000000010002011000000090300000903000008B500F07BF90000F8B572B60024062363435D4D0134EE187279707831793778B3781202F67800020A433843190408438E
:4000400037063843002100F0DEFA032CE7D1291C12315248802200F0CDFA0023191C504AFF25141C143418593432061CAE434F00C4B2351CD219002C07D01778013C7E199E
:400080005778E4B237700232F5E7C0B204330918202BE4D18023434C434E5A000125EE272280380435704149414A424B424D434F9924302608601A6090202C60404A3E6063
:4000C0008023404C404F8102DD02412611603F4825603F493E603F4B3F4E0222312408603E4F1A60992034603D4B3E4C3E4E01043A603E481960802734603D4CBB05036067
:400100003C4E21603C493D4F31603B7806201A433A703A783A4C02433A702168394E0D432560394D394B287831781F78172F05D9374A58789978033B9342F6D1354B364DD9
:40014000364E19272860316005201F6000F0ACF93348344A01780520116000F0CBF9324E2568324F2E40266030243C60304B314F314A8025314C2E06202010211860304D09
:40018000116030482660304B3E603049304E314A186011603560F8BD900E000080300F40100F000000600F4002600F400000014003EE00030C0001401000014000000440DF
:4001C000080004400802044000030440866D18000803044000040440080404401804044000500F400400990020500F4024500F4030500F4038500F400000033000700F4076
:4002000000010B40CDF1FF0FCCF1FF0FC9F1FF0FBDF1FF0F2CFF0B401CFF0B4020FF0B40E5F1FF0F28FF0B40FFFFFBFF080202400C02024004010B403002024008010B400F
:40024000CF0000800B000080000002401D000080800002404000024010B5064C2378002B07D10548002802D0044800E000BF0121217010BD4801002000000000200E000083
:4002800008B5084B002B03D00748084900E000BF07480168002903D0064A002A00D0904708BDC04600000000200E00004C010020C80000200000000013B500F077F862B68F
:4002C000FA20800000F000F9094800F0DFF8094800F0DCF8084B00240093201C0749084A084B00F099F9011C201C00F07BF8E7E7240E00002C0E000002030000340E000054
:40030000010200000301000000B5FEE770B50F490F4A01394B1C14D0506895681468031C1E1AAE4202D040CC40C3F9E7D0681D1C5C1B844202D0002640C3F9E71032013983
:40034000E8E700F031F9FFF7B7FFFEE7010000006411000008B500239A00032B02D80A48815800E009490A4801338150302BF3D1FFF752FE074B002280211A60C80502682C
:4003800001231A43026008BD000000000903000000000020C0000020034B802219681006084318607047C0460000064010B5054C2378002B03D100F021F801202070FFF7DC
:4003C000EBFF10BD6401002000B5044B0F211A6811400829F9D0024B186000BD080206404002064038B5041C4518AC4204D02078FFF7EAFF0134F8E738BD0000124A134B00
:40040000134810B51A6000230360124A124C1348012121600260124807240460114C1248236001601149124C0A601248124A134913602360124A0360124C13480B6013607E
:400440002360036010BDC0460B000002000006404000064007000080480006400003064004030640100306404400064000020640880E0640C80E064004020640480F064033
:40048000080F0640C80F0640880F064010B5041C0134631E1878002802D0FFF795FFF7E710BD0000000000000230800804D0C0460138FDD1C046C0467047EFF3108072B693
:4004C000704780F31088704710B5041C8022074B1002844205D91868FFF7E6FF04496418F4E758686043FFF7DFFF10BDCC0000200080FFFF08B5034B197A4843FFF7D4FF95
:4005000008BDC046CC000020002934D00123002210B488422CD301242407A14204D2814202D209011B01F8E7E400A14204D2814202D249005B00F8E7884201D3401A1A4353
:400540004C08A04202D3001B5C0822438C08A04202D3001B9C082243CC08A04202D3001BDC082243002803D01B0901D00909E3E7101C10BC7047002801D00020C04307B4DC
:40058000024802A14018029003BDC046190000000029F0D003B5FFF7B9FF0EBC4243891A1847C0467047C04670B50E4B0E4D0024E81A85101E1CAC4204D0A1007258904750
:4005C0000134F8E700F0BCFD0849094A0E1C541AA5100024AC4204D0A300F05880470134F8E770BD4C1100004C1100004C1100005411000010B50023934203D0CC5CC45428
:400600000133F9E710BD00B58218031C934202D019700133FAE700BD0EB400B59CB01DAB02A904CB822202900861920009488A810122886048615042074AC88110681D9AC8
:40064000019300F063F8029900230B701CB008BC03B01847FFFFFF7F40010020F7B501919168071C141C002940D190239289D80002423BD02568216963696E1A58000096D1
:40068000C6180098F50FAB1901305D10A84201DB009D0235381C53050FD5291C00F004FB061E13D02169009AFFF7A4FFA7891649802239401143A18111E02A1C00F04AFBB0
:4006C000061E0CD1381C216900F0A6FA0C203860A58940263543A5810124604213E0009B6561F018ED1A26612060A560A668002E08DD694627680A793A70A3680137013B54
:400700002760A3600020FEBD7FFBFFFFF0B5A1B0049007938B890E1C171C19060FD53269002A0CD1402100F0BFFA30603061002803D1049C0C262660D6E04020706108AD87
:4007400000212024302369616C76AB763C1C2278002A04D1E01B069019D003970FE0252AF8D00134F3E70399321C09780498FFF775FF039A01320392013000D1AFE00399D7
:400780000698CB1B8342EEDB0D9F3A180D922178002900D1A3E001206A4600234742633201342B60EB606F60AB601370AB65504F2178381C052200F0C1FA002807D0C71BAB
:4007C0002B680120B840184328600134EFE72B68D90603D568462021633001701A0703D56A462B276332177021782A2901D00B9B0EE0079A1068111D0791002801DB0B903C
:4008000004E0022247421343EF602B60013409E020783038092804D80A277B4301341B18F6E70B9323782E2B18D161782A2909D1079B02341A68191D0791002A0DDA0120BD
:4008400042420AE00134002220783038092804D80A277A4301341218F6E70992254F2178381C032200F06AFA002806D02B68C21B4021914019432960013421781E48062226
:400880002976671C00F05AFA002817D01B4800280BD12868079C0723C10501D5E41800E007349C430834079414E007AA00920498291C321C124B00E000BF07E007AC009406
:4008C0000498291C321C0E4B00F08CF8059005994A1C04D00D99059A8C180D9436E7B589690601D40D9801E00127784221B0F0BD0A1100001011000014110000000000001F
:400900005D060000F7B5151C01930A698B6800900C1C934200DA131C201C2B6043300178002901D001332B602668B00602D52F6802372F602268062616401CD0261C43364E
:40094000377822683E1C731E9E4192061CD5A319181C40303021271CC17045373A784133DA70023610E0617E0098019A089FB847013006D00136E3682868191A8E42F2DB11
:40098000DCE7012040422CE00027B7420ADAE119433109780098019A089B98470130F0D00137F2E72B68256806212940E6680025042903D1F01AC743FD170540A2682669F1
:4009C000B24201DD931BED180027AF4208DAA17E0098019A089EB0470130D2D00137F4E70020FEBDF0B50D1C8BB0433507930590069204950A7E0C1C109B6E2A00D1A8E09B
:400A000012D8632A24D009D8002A00D1B1E0582A00D0C1E045310A707D4D51E0642A1FD0692A00D0B8E01BE0732A00D1A5E009D86F2A2BD0702A00D0AEE00A68202616431C
:400A40000E6038E0752A21D0782A00D0A4E032E018680E1C051D1D600368423633709EE026681F68300606D4750604D5381D186000203D5E02E03D1D1D603D68644B002DD0
:400A80003BDA04992D226D420A7036E027681E683D0605D4780603D5351D1D60358802E0311D196035685A4B207E039308276F281ED00A271CE0271C45377820554D387042
:400AC0001A682668111D03951960300603D4750601D5158800E01568F00702D520231E4326601027002D03D12668202086432660261C43360022327001E003930A27616812
:400B0000A160002903DB2068042398432060002D02D1049E00290ED0049E281C391CFFF737FD039A013E515C281C3170391CFFF7EBFC051EF1D1049B9A1B2261082F33D1FE
:400B40002768F80730D5606890422DDC013262602AE008681E684969050606D4450604D5351D1D603368198003E0321D1A603768396000202061049E16E01E68311D196022
:400B80003668301C00F01EF965682061A84200D925612369636004E0261C4236327001212161049F00223A7007990598009109AA211C069BFFF7A6FE01300CD0351C226929
:400BC000AB1B93420ADA29780598069A079FB84701350130F3D10122504217E02668B10705D4099BE068984210DA181C0EE00025E7680998391A8D42F3DA617E0598069A0B
:400C0000079EB0470130E6D00135F1E70BB0F0BD1B1100002C11000030B5002940D004390B68002B00DAC9181E4A1368141C002B02D14B60116033E099420FD20D684A19CA
:400C40009A4205D110682B1855680B604D6000E04B60216024E08A4203D8131C5A68002AF9D11D685C198C420BD10C682D1958191D60904214D1116852686C181C605A60A6
:400C80000EE08C4202D90C21016009E008680D18954203D114685268001908604A60596030BDC0466C01002070B50323CD1C9D430835061C0C2D01D20C2501E0002D2DDB86
:400CC0008D422BD31C4A1368111C1C1C002C12D02068421B0CD40B2A02D92260A41815E0A34202D166680E601CE065685D6019E0231C6468EAE7301C291C00F051F8421C54
:400D00000CD0C41C03218C43844201D1256009E0211A301C00F044F80130F7D10C243460002008E0201C0B300722211D9043431A01D05D42E55070BD6C01002000B5C9B2E9
:400D40008218904204D003788B4202D00130F8E7002000BDF8B5061C0C1C151C002904D1111CFFF7A1FF041C18E0002A03D1FFF753FF2C1C12E000F02CF8A8420ED2301C81
:400D8000291CFFF791FF071E07D0211C2A1CFFF731FC301C211CFFF73FFF3C1C201CF8BD38B5074C0023051C081C236000F01CF8431C03D12168002900D0296038BDC04658
:400DC000740100200023C25C0133002AFBD1581E704704390B6800B5181F002B02DAC8581918081F00BD00000A4A00B51368002B0CD018186946884202D81060181C00BD7F
:400E0000054B0C2201201A604342F7E7034B1360EFE7C046700100207401002078010020000000004D41473A200A0D004143433A200A0D00583A202564200A593A202564BB
:400E4000200A5A3A202564200A0D20004572726F7220312E313A202564200A004572726F7220312E323A202564200A004572726F7220322E313A202564200A006D616B65BF
:400E800020697420686572653F20200A0D00000000300F40800000310F40000300400F40000404400000074038006000004056400900014000000003043C0A15106A0400A3
:400EC00000000479000604000000041000600002000D7F0000000070000F020000A00000000035014000020EFDCB3DFFFFFF2200F008040000000000022004040404000070
:400F000000010000C00040011011C00100114001400100000000000000000000000000000000000001000F4010300F4036310F4048320F4044330F4002420F400A430F40E7
:400F400002600F40810F0001020210041701180619011A0123012C04300737013A023F40580459045F01034004800504068408100A400C100E921002162017191880190272
:400F80001A401B011E8022402680270829022B402D022E202F0130103114351437013C803D013E14449847404D084F80548256546280630167036C206D416E166F117440A8
:400FC000C0F8C2FAC471CAB1CCE6CEF0D0F0D210D810001A010203080413051D06040801091D0A180C180D1D0E021002110D13101402161819021B041C1C1D021E031F0D44
:40100000201A23102418281829012A022B022D1D310F3213340F35103A203B023F105440580459045B045F0180088206840886068A048E019001910E940195039704980A1C
:4010400099059B0AA001A401AD04AF09B001B10FB206B608B902BE41D409D804D904DB04DF010008014203090514068007010A500B080C020D010E100F021020110115017A
:401080001718184019411B081C081D141F042102252027402B012C802F0531163510374139013B023C803ED43F0240C04520460859295A806140665885218B0891419294B0
:4010C000990A9A509B189C809D149E80A0E2A301AE40B408B504B740C0FFC2BEC47CCAB8CCB7CEF0D60FD878EC020820C2025E8064108A409810AC10B420D604D801E00409
:40110000EA021001110100004300232D302B2000686C4C0065666745464700303132333435363738394142434445460030313233343536373839616263646566000000006A
:40114000F8B5C046F8BC08BC9E4670478102000055030000F8B5C046F8BC08BC9E4670475902000078110000C8000020800000003000000000000000000000000000E02E7E
:40118000C05D00001800000000366E01000000000000000000000000000000000000000000000000000000000000000008110000000000000000000000000000000000003C
:4011C000000000000000000000000000000000000000000000000000000000000000000000000000000000000000000000000000DC000020000000000000000000000000F3
:4012000000000000000000000000000000000000000000000000000000000000000000000000000000000000000000000000000000000000000000000000000000000000AE
:40124000000000000000000000000000000000000000000000000000000000000000000000000000000000000000000000000000000000000000000000000000000000006E
:40128000000000000000000000000000000000000000000000000000000000000000000000000000000000000000000000000000000000000000000000000000000000002E
:4012C00000000000000000000000000000000000000000000000000000000000000000000000000000000000000000000000000000000000000000000000000000000000EE
:0200000490303A
:0200000025C316
:0200000490402A
:200000000000000000000000000000000000000000000000000000000000000000000000E0
:0200000490501A
:0C000000000204C81193110104CD375612
:0200000490600A
:0100000001FE
:00000001FF