:400000000010002011000000390400003904000080B500AF00F014FA80B584B000AF021CFB1D1A70224A3B1C0B3312781A70214A3B1C0A3312781A701F4B1B68013BFB609F
:400040001AE01E4B1868391C0B31FA68131C5B009B18C31801331B780B70184B1868391C0A31FA68131C5B009B18C31802331B780B70FB68013BFB60FB68002B0ADB0F4B59
:400080001968FA68131C5B009B185B5CFA1D12789A42D6D90A4B3A1C0B3212781A60094B3A1C0A3212781A60BD4604B080BDC046CCF1FF0FCDF1FF0FA01A0000CC00002030
:4000C0001CFF0B4020FF0B4080B500AF194B194A12688021C9020A431A601820FFF79CFF154B19221A60052000F0E2FC134B144A1278D2B21A60052000F09AFD0D4B0D4A68
:400100001168104A0A401A600F4B20221A600F4B10221A600E4B802212061A600D4B802212061A600C4B0D4A1A600D4B0D4A1A60BD4680BD00010B402CFF0B4028FF0B402E
:40014000E5F1FF0FFFFFFBFF080202400C02024008010B4004010B40000002400E000080400002402200008080B582B000AF72B6FB1D00221A7023E0FB1D1A78131C5B0036
:400180009B185B002F4A9B183B603B681A78597809020A43997809040A43DB781B0613431A1C3B6819795B791B020B439BB2101C191C00F0C9F9FB1DFA1D127801321A7057
:4001C000FB1D1B78012BD7D91F4BEE2212041A601E4BEE2212021A601D4B99221A601D4B30221A601C4B902292021A601B4BD82212011A601A4B02221A601A4B31221A604D
:40020000194B02221A60194B992212041A60184B992212041A60174B164A1278D2B202210A43D2B21A70134B124A1278D2B206210A43D2B21A70FFF747FF00F095F9BD460A
:4002400002B080BD941A0000000001400C0001401000014000000440080004400803044000040440080404401804044000500F4030500F4000700F4010B5064C2378002B21
:4002800007D10548002802D0044800E000BF0121217010BD4801002000000000841A000008B5084B002B03D00748084900E000BF07480168002903D0064A002A00D090478B
:4002C00008BDC04600000000841A00004C010020C80000200000000080B500AF00F05EF900F062FB62B600F08FF8FEE780B586B000AF3960FB1D011C1970BB1D1A7000F091
:400300002BFB3F4B1B68181C002100F0D9F9021C3B1C13331A703B1C13331B78002B15D03B1C13331B78391C0831364A081C111C1A1C00F0A3FF031C7B613B1C0833181CD6
:4003400000F09CFB3B1C13331B7854E0FB1D1B78181C00F09BFA021C3B1C13331A703B1C13331B78002B15D03B1C13331B78391C0831244A081C111C1A1C00F07FFF031C69
:400380007B613B1C0833181C00F078FB3B1C13331B7830E000237B6116E07B693A68D3181B78181C00F072FA021C3B1C13331A703B1C13331B78002B03D03B1C13331B78CC
:4003C00019E07B6901337B61BB1D1A787B699A42E3DC00F0FDF9021C3B1C13331A703B1C13331B78002B03D03B1C13331B7802E03B1C13331B78181CBD4606B080BDC0465C
:40040000881A00008C1A000080B582B000AF3B1D80221A703B1D1120191C0122FFF766FF3B1D01221A703B1D1020191C0122FFF75DFFBD4602B080BD80B500AFFEE7C046A6
:4004400080B586B000AF254B7B61254B3B61234B7B61234B3B6132E03B691B68FB603B695B68BB603B699B683B6000237B600CE0FB681A68BB681A60BB680433BB60FB681A
:400480000433FB607B6804337B607A683B689A42EED13B69DB683B6000237B6008E0BB6800221A60BB680433BB607B6804337B607A683B689A42F2D13B6910333B617B6979
:4004C0005A1E9341DBB27A69013A7A61002BC3D100F09CFEFFF700FFFEE7C04601000000001B000080B582B000AF00237B600FE07B68032B04D8104B7A689200D35800E01B
:400500000E4B0F4A796889008B507B6801337B607B682F2BECD9FFF727FE0A4B00221A608023DB058022D205126801210A431A60BD4602B080BDC046000000003904000030
:4005400000000020C000002080B582B000AF786039607A683B68101C00211A1C00F085FEBD4602B080BDC04680B500AFBD4680BD80B500AF00F02CF8BD4680BD80B500AF41
:40058000054B054A1268802109060A431A6000F017F8BD4680BDC0460000074080B500AF064B1B78002B04D1FFF7E2FF034B01221A70FFF7E3FFBD4680BDC04664010020E2
:4005C00080B500AF0B2000F0FDFABD4680BDC04680B500AF234B00221A60234B234A1A60234B234A12680C210A431A60214B224A1A60224B00221A60214B00221A60214B64
:40060000214A1A60214B00221A600B2000F0F0FA0B20032100F082FA1D4B0B20191C00F057FA1C4B00221A601B4B00221A601B4B00221A601A4B1B4A1A601B4B00221A60B7
:400640001A4B00221A601A4B10221A70194B00221A80194B00221A60184B00221A60BD4680BDC046000007406000074077080080700007400003074007030080040307402D
:4006800010030740000207400701008004020740590C0000C80E0740880E0740480F0740080F074013010000C80F0740880F07407C0100208A0100209001002084010020B9
:4006C00080B584B000AF786039600023FB600423BB60374B1B78DBB2102B64D1354B1A680123134002D00823BB605CE00B2000F07FFA7B685A00FF2313407B603B68002BE3
:4007000003D12B4B24221A7006E0294B25221A707B68012213437B60274B7A681A60274B274A1A60274B02221A60C046234B1A68254B1340FAD0214B1A680423134002D045
:400740000023BB601CE01D4B1A680223134002D00223BB6014E0194B1A680123134007D0134B10221A700123BB600123FB6007E00F4B10221A7080235B00BB600123FB6036
:400780000E4B114A1A60FB68002B0CD00F4B0F4A1268520052081A600C4B0C4A1268802109060A431A60BB68181CBD4604B080BD7C0100206400074040020740000F07403E
:4007C0001703000068000740070100000000074080B582B000AF00237B6004233B60254B1B78DAB220231340DBB2002B3CD0224B224A116820220A4001D0182200E0102227
:400800001A60C0461E4B1A681E4B1340FAD01C4B1A681023134002D000233B600EE0184B1A680123134004D001233B6001237B6004E080235B003B6001237B60104B114ABA
:400840001A600C4B10221A707B68002B0CD00E4B0D4A1268520052081A600B4B0A4A1268802109060A431A603B68181CBD4602B080BDC0467C010020680007406400074050
:40088000000F0740110100000000074080B584B000AF78600023FB600423BB60294B1B78DAB220231340DBB2002B46D0264B7A681A60C046254B1A68254B1340FAD0234B22
:4008C0001A680423134005D01E4B60221A700023BB601FE01D4B1A680223134005D0194B60221A700223BB6014E0184B1A680123134007D0134B10221A700123BB600123EA
:40090000FB6007E00F4B10221A7080235B00BB600123FB600D4B0E4A1A60FB68002B0CD00C4B0C4A1268520052081A60094B094A1268802109060A431A60BB68181CBD46F4
:4009400004B080BD7C01002040020740000F0740070100000000074080B582B000AF064B1B889BB27B60044B00221A807B68181CBD4602B080BDC0468A01002080B500AFE0
:4009800000F028F8BD4680BD80B500AF054B054A1268802109060A431A6000F017F8BD4680BDC0460000064080B500AF064B1B78002B04D1FFF7E2FF034B01221A70FFF758
:4009C000E3FFBD4680BDC0466C01002080B500AFBD4680BD80B500AF174B184A1A60184B00221A60174B01221A60174B174A1A60174B07221A60174B00221A60164B01223A
:400A00001A60164B114A1A60154B00221A60154B00221A60144B00221A60144B00221A60134B00221A60134B00221A60124B00221A60BD4680BDC046000006400B00000292
:400A4000400006404800064000030640070000800403064010030640440006400002064004020640880E0640C80E0640480F0640080F0640C80F0640880F064080B584B079
:400A800000AF78600023FB6009E07A68FB68D3181B78181C00F054FBFB680133FB607A68FB68D3181B78002BEFD1BD4604B080BD0230800804D0C0460138FDD1C046C046D7
:400AC0007047EFF3108072B6704780F31088704780B584B000AF021C3960FB1D1A7080239B05FB60FB1D1B781F2B02D9002000F095F8FB1D1B7810339B00FA68D3181B6857
:400B0000BB60FB1D1B7810339B00FA68D3183A681A60BB68181CBD4604B080BD90B587B000AF0A1CFB1D011C1970BB1D1A70BB1D1B78032B02D9002000F070F8FB1D1B7855
:400B40001F2B02D9002000F069F8FB1D1A7803231340DB0006337B613C1C1334FFF7B1FF031C2370FB1D1B789B08DBB29B0014495B181B68FB607B690322111C99400B1C7B
:400B8000DA43FB681340FB60BB1D1A787B69111C99400B1CFA681343FB60FB1D1B789B08DBB29B00064A9B18FA681A603B1C13331B78181CFFF789FFBD4607B090BDC04635
:400BC00000E400E080B582B000AF021CFB1D1A70064BFA1D11781F220A400121081C9040021C1A60BD4602B080BDC04600E100E080B582B000AF021CFB1D1A70064BFA1D3A
:400C000011781F220A400121081C9040021C1A60BD4602B080BDC04680E100E080B582B000AF021CFB1D1A7001BEBD4602B080BD80B582B000AF021CBB1D1A80BB1D1B8811
:400C4000044A12785343181CFFF732FFBD4602B080BDC046D800002080B582B000AF00233B60C24B1B68002B02D0C04B1B689847BF4B1A680123134002D0BE4B00221A6073
:400C8000BD4B1B78DAB220231340DBB2002B3CD0BA4B1A6880235B0013400AD0B84B1B889BB2C022920013439AB2B54B1A8001233B60B24B1A68012313400AD0B04B1B8831
:400CC0009BB29022920013439AB2AD4B1A8001233B603B68002B18D0A74B1B78DAB201231340DBB2002B01D0012300E00223A44A128892B291B21A1C0B1C13439BB29AB225
:400D00009F4B1A809C4B00221A709B4B1B78DAB220231340DBB2002B00D1AAE1974B1A68102313401CD0974B10221A60924B1B78DAB201231340DBB2002B01D0012300E089
:400D400002238F4A128892B291B21A1C0B1C13439BB29AB28A4B1A80874B10221A70BEE1854B1B78DAB208231340DBB2002B29D0824B1A68022313400ED0824B02221A603E
:400D80007F4B1B889BB28822920013439AB27C4B1A8001233B6015E0774B1B78DAB201231340DBB2002B03D0734B25221A7009E0714B24221A70744B1B68002B02D0734BA2
:400DC00010221A606C4B1B78DAB204231340DBB2002B00D111E1684B1B78DAB201231340DBB2002B5BD06A4B1A680823134033D0684B1A68684B19680F231940674B1B686F
:400E0000CB18D31A7B607B68082B02D908237B601EE07B68002B1BD1614B614A1168614A0A401A6008237B6001233B6010E05E4B1A685A4B1B68D2185C4B1B68DBB21370AD
:400E4000564B1B685A1C554B1A607B68013B7B607B68002BEBD11EE04D4B1A680423134019D0514B1A684D4B1B68D2184F4B1B68DBB21370494B1B685A1C484B1A60474B03
:400E80001A68444B1B689A4203D2494B04221A6001E001233B60474B474A1A60ADE0374B1A680223134032D0364B02221A60434B1A68434B19680F231940414B18688023F9
:400EC0001B02034001D0012300E00023CB18D21A3A4B1A60394B1A683A4B1A60284B1B889BB28422920013439AB2254B1A80364B354A1268802149020A431A60324B324A5A
:400F00001168324A0A401A6001233B6075E0304B1A681023134065D013E0284B1A681A4B1B689A4214D22B4B2B4A1168234A12688A181278D2B21A60204B1B685A1C1F4B57
:400F40001A601F4B1A680F231340082BE5D100E0C0461A4B1A680C4B1B689A4202D10B4B40221A601D4B1E4A1A6046E0680100208C0E0740880E07407C0100200C0F07405F
:400F80008A010020000F07408C010020880F0740CC0F07409C010020080307409001002060000740FFFEFFFF980100204003074068000740C00F0740ED0F0000800100207C
:400FC000080207408401002004020740FFFFFEFF8C0F07404002074094010020800F0740F30700003F4B1A684023134005D03E4B1A683E4B1A6001233B603B68002B6ED053
:401000003B4B3B4A11683B4A0A401A603A4B00221A603A4B00221A60394B1B78DAB202231340DBB2002B19D0364B1B78DAB201231340DBB2002B01D0092300E00A23324A90
:40104000128892B291B21A1C0B1C13439BB29AB22D4B1A802B4B60221A7040E02B4B2C4A116820220A4001D0182200E010221A6035E0244B1B78DAB210231340DBB2002BE6
:401080002DD1244B234A1268520052081A601D4B10221A70164B164A11681F4A0A401A60134B134A11681D4A0A401A60124B00221A60124B00221A60194B1A4A1A601A4B33
:4010C0001A4A1A601A4B1B4A1A601B4B1B4A1A60104B104A1268802109060A431A60BD4602B080BD8C0F0740800100208401002060000740FFFEFFFFC80F0740880F07402B
:40110000880100207C0100208A010020680007406400074000000740FF5FFFFFFFFCFFFF800F0740ED0F0000C00F0740F3070000400F0740FF0F0000000F074017030000D2
:4011400080B582B000AF7860C046064B1A680F231340082BF9D0044B7A681A60BD4602B080BDC0460802064040020640002934D00123002210B488422CD301242407A14279
:4011800004D2814202D209011B01F8E7E400A14204D2814202D249005B00F8E7884201D3401A1A434C08A04202D3001B5C0822438C08A04202D3001B9C082243CC08A0429D
:4011C00002D3001BDC082243002803D01B0901D00909E3E7101C10BC7047002801D00020C04307B4024802A14018029003BDC046190000000029F0D003B5FFF7B9FF0EBC95
:401200004243891A1847C0467047C04670B50E4B0E4D0024E81A85101E1CAC4204D0A100725890470134F8E700F058FC0849094A0E1C541AA5100024AC4204D0A300F05878
:4012400080470134F8E770BDE81A0000E81A0000E81A0000F01A000010B50023934203D0CC5CC4540133F9E710BD00B58218031C934202D019700133FAE700BD0EB400B5BE
:401280009CB01DAB02A904CB822202900861920009488A810122886048615042074AC88110681D9A019300F063F8029900230B701CB008BC03B01847FFFFFF7F4401002069
:4012C000F7B501919168071C141C002940D190239289D80002423BD02568216963696E1A58000096C6180098F50FAB1901305D10A84201DB009D0235381C53050FD5291C91
:4013000000F004FB061E13D02169009AFFF7A4FFA7891649802239401143A18111E02A1C00F04AFB061E0CD1381C216900F0A6FA0C203860A58940263543A5810124604242
:4013400013E0009B6561F018ED1A26612060A560A668002E08DD694627680A793A70A3680137013B2760A3600020FEBD7FFBFFFFF0B5A1B0049007938B890E1C171C190662
:401380000FD53269002A0CD1402100F0BFFA30603061002803D1049C0C262660D6E04020706108AD00212024302369616C76AB763C1C2278002A04D1E01B069019D0039702
:4013C0000FE0252AF8D00134F3E70399321C09780498FFF775FF039A01320392013000D1AFE003990698CB1B8342EEDB0D9F3A180D922178002900D1A3E001206A4600231C
:401400004742633201342B60EB606F60AB601370AB65504F2178381C052200F0C1FA002807D0C71B2B680120B840184328600134EFE72B68D90603D5684620216330017000
:401440001A0703D56A462B276332177021782A2901D00B9B0EE0079A1068111D0791002801DB0B9004E0022247421343EF602B60013409E020783038092804D80A277B43AB
:4014800001341B18F6E70B9323782E2B18D161782A2909D1079B02341A68191D0791002A0DDA012042420AE00134002220783038092804D80A277A4301341218F6E7099275
:4014C000254F2178381C032200F06AFA002806D02B68C21B4021914019432960013421781E4806222976671C00F05AFA002817D01B4800280BD12868079C0723C10501D55C
:40150000E41800E007349C430834079414E007AA00920498291C321C124B00E000BF07E007AC00940498291C321C0E4B00F08CF8059005994A1C04D00D99059A8C180D945B
:4015400036E7B589690601D40D9801E00127784221B0F0BDA61A0000AC1A0000B01A000000000000C1120000F7B5151C01930A698B6800900C1C934200DA131C201C2B608F
:4015800043300178002901D001332B602668B00602D52F6802372F602268062616401CD0261C4336377822683E1C731E9E4192061CD5A319181C40303021271CC17045372C
:4015C0003A784133DA70023610E0617E0098019A089FB847013006D00136E3682868191A8E42F2DBDCE7012040422CE00027B7420ADAE119433109780098019A089B984798
:401600000130F0D00137F2E72B68256806212940E6680025042903D1F01AC743FD170540A2682669B24201DD931BED180027AF4208DAA17E0098019A089EB0470130D2D03D
:401640000137F4E70020FEBDF0B50D1C8BB0433507930590069204950A7E0C1C109B6E2A00D1A8E012D8632A24D009D8002A00D1B1E0582A00D0C1E045310A707D4D51E099
:40168000642A1FD0692A00D0B8E01BE0732A00D1A5E009D86F2A2BD0702A00D0AEE00A68202616430E6038E0752A21D0782A00D0A4E032E018680E1C051D1D6003684236FC
:4016C00033709EE026681F68300606D4750604D5381D186000203D5E02E03D1D1D603D68644B002D3BDA04992D226D420A7036E027681E683D0605D4780603D5351D1D60F8
:40170000358802E0311D196035685A4B207E039308276F281ED00A271CE0271C45377820554D38701A682668111D03951960300603D4750601D5158800E01568F00702D5D6
:4017400020231E4326601027002D03D12668202086432660261C43360022327001E003930A276168A160002903DB2068042398432060002D02D1049E00290ED0049E281C59
:40178000391CFFF737FD039A013E515C281C3170391CFFF7EBFC051EF1D1049B9A1B2261082F33D12768F80730D5606890422DDC013262602AE008681E684969050606D451
:4017C000450604D5351D1D603368198003E0321D1A603768396000202061049E16E01E68311D19603668301C00F01EF965682061A84200D925612369636004E0261C4236E3
:40180000327001212161049F00223A7007990598009109AA211C069BFFF7A6FE01300CD0351C2269AB1B93420ADA29780598069A079FB84701350130F3D10122504217E038
:401840002668B10705D4099BE068984210DA181C0EE00025E7680998391A8D42F3DA617E0598069A079EB0470130E6D00135F1E70BB0F0BDB71A0000C81A000030B500299D
:4018800040D004390B68002B00DAC9181E4A1368141C002B02D14B60116033E099420FD20D684A199A4205D110682B1855680B604D6000E04B60216024E08A4203D8131C86
:4018C0005A68002AF9D11D685C198C420BD10C682D1958191D60904214D1116852686C181C605A600EE08C4202D90C21016009E008680D18954203D114685268001908603D
:401900004A60596030BDC0467401002070B50323CD1C9D430835061C0C2D01D20C2501E0002D2DDB8D422BD31C4A1368111C1C1C002C12D02068421B0CD40B2A02D922607E
:40194000A41815E0A34202D166680E601CE065685D6019E0231C6468EAE7301C291C00F051F8421C0CD0C41C03218C43844201D1256009E0211A301C00F044F80130F7D1DE
:401980000C243460002008E0201C0B300722211D9043431A01D05D42E55070BD7401002000B5C9B28218904204D003788B4202D00130F8E7002000BDF8B5061C0C1C151C47
:4019C000002904D1111CFFF7A1FF041C18E0002A03D1FFF753FF2C1C12E000F02CF8A8420ED2301C291CFFF791FF071E07D0211C2A1CFFF731FC301C211CFFF73FFF3C1CE2
:401A0000201CF8BD38B5074C0023051C081C236000F01CF8431C03D12168002900D0296038BDC046A00100200023C25C0133002AFBD1581E704704390B6800B5181F002B2D
:401A400002DAC8581918081F00BD00000A4A00B51368002B0CD018186946884202D81060181C00BD054B0C2201201A604342F7E7034B1360EFE7C04678010020A001002073
:401A8000A8010020000000000E000000583A202564200A0000300F40000400400F400004040000004300232D302B2000686C4C0065666745464700303132333435363738CA
:401AC00039414243444546003031323334353637383961626364656600000000F8B5C046F8BC08BC9E467047A1020000E5040000F8B5C046F8BC08BC9E4670477902000023
:401B0000101B0000C8000020800000006000000000000000C0F1FF0F00366E01C05D0000180000000000E02E0000000000000000000000000000000000000000000000000B
:401B40000000000000000000A41A000000000000000000000000000000000000000000000000000000000000000000000000000000000000000000000000000000000000A7
:401B8000000000000000000000000000E000002000000000000000000000000000000000000000000000000000000000000000000000000000000000000000000000000025
:401BC00000000000000000000000000000000000000000000000000000000000000000000000000000000000000000000000000000000000000000000000000000000000E5
:401C000000000000000000000000000000000000000000000000000000000000000000000000000000000000000000000000000000000000000000000000000000000000A4
:401C40000000000000000000000000000000000000000000000000000000000000000000000000000000000000000000000000000000000000000000000000000000000064
:401C80000000000000000000000000000000000000000000000000000000000000000000000000000000000000000000000000000000000000000000000000000000000024
:0200000490303A
:0200000077394E
:0200000490402A
:200000000000000000000000000000000000000000000000000000000000000000000000E0
:0200000490501A
:0C000000000204C81193110104D088CC48
:0200000490600A
:0100000001FE
:00000001FF